{
  "_format": "hh-sol-artifact-1",
  "contractName": "Vendor",
  "sourceName": "contracts/Vendor.sol",
  "abi": [
    {
      "inputs": [
        {
          "internalType": "contract JoeToken",
          "name": "_token",
          "type": "address"
        }
      ],
      "stateMutability": "nonpayable",
      "type": "constructor"
    },
    {
      "inputs": [
        {
          "internalType": "uint256",
          "name": "amount",
          "type": "uint256"
        }
      ],
      "name": "buyTokens",
      "outputs": [],
      "stateMutability": "payable",
      "type": "function"
    }
  ],
  "bytecode": "0x608060405234801561001057600080fd5b5060405161037f38038061037f8339818101604052810190610032919061008d565b806000806101000a81548173ffffffffffffffffffffffffffffffffffffffff021916908373ffffffffffffffffffffffffffffffffffffffff16021790555050610111565b600081519050610087816100fa565b92915050565b60006020828403121561009f57600080fd5b60006100ad84828501610078565b91505092915050565b60006100c1826100da565b9050919050565b60006100d3826100b6565b9050919050565b600073ffffffffffffffffffffffffffffffffffffffff82169050919050565b610103816100c8565b811461010e57600080fd5b50565b61025f806101206000396000f3fe60806040526004361061001e5760003560e01c80633610724e14610023575b600080fd5b61003d60048036038101906100389190610143565b61003f565b005b60008054906101000a900473ffffffffffffffffffffffffffffffffffffffff1673ffffffffffffffffffffffffffffffffffffffff1663a9059cbb33836040518363ffffffff1660e01b815260040161009a92919061018a565b602060405180830381600087803b1580156100b457600080fd5b505af11580156100c8573d6000803e3d6000fd5b505050506040513d601f19601f820116820180604052508101906100ec919061011a565b5050565b6000815190506100ff816101fb565b92915050565b60008135905061011481610212565b92915050565b60006020828403121561012c57600080fd5b600061013a848285016100f0565b91505092915050565b60006020828403121561015557600080fd5b600061016384828501610105565b91505092915050565b610175816101b3565b82525050565b610184816101f1565b82525050565b600060408201905061019f600083018561016c565b6101ac602083018461017b565b9392505050565b60006101be826101d1565b9050919050565b60008115159050919050565b600073ffffffffffffffffffffffffffffffffffffffff82169050919050565b6000819050919050565b610204816101c5565b811461020f57600080fd5b50565b61021b816101f1565b811461022657600080fd5b5056fea26469706673582212208eae53c3b504f83de91340a6a3a77003e2b9ce6a906a2bc841fbb0302d02be3f64736f6c63430008040033",
  "linkReferences": {},
  "deployedLinkReferences": {}
}