{
  "_format": "hh-sol-artifact-1",
  "contractName": "Vendor",
  "sourceName": "contracts/Vendor.sol",
  "abi": [
    {
      "inputs": [
        {
          "internalType": "contract JoeToken",
          "name": "_token",
          "type": "address"
        }
      ],
      "stateMutability": "nonpayable",
      "type": "constructor"
    },
    {
      "inputs": [
        {
          "internalType": "uint256",
          "name": "amount",
          "type": "uint256"
        }
      ],
      "name": "buyTokens",
      "outputs": [],
      "stateMutability": "payable",
      "type": "function"
    },
    {
      "inputs": [
        {
          "internalType": "uint256",
          "name": "amount",
          "type": "uint256"
        }
      ],
      "name": "sell",
      "outputs": [],
      "stateMutability": "nonpayable",
      "type": "function"
    }
  ],
  "bytecode": "0x608060405234801561001057600080fd5b5060405161049d38038061049d8339818101604052810190610032919061008d565b806000806101000a81548173ffffffffffffffffffffffffffffffffffffffff021916908373ffffffffffffffffffffffffffffffffffffffff16021790555050610111565b600081519050610087816100fa565b92915050565b60006020828403121561009f57600080fd5b60006100ad84828501610078565b91505092915050565b60006100c1826100da565b9050919050565b60006100d3826100b6565b9050919050565b600073ffffffffffffffffffffffffffffffffffffffff82169050919050565b610103816100c8565b811461010e57600080fd5b50565b61037d806101206000396000f3fe6080604052600436106100295760003560e01c80633610724e1461002e578063e4849b321461004a575b600080fd5b6100486004803603810190610043919061022a565b610073565b005b34801561005657600080fd5b50610071600480360381019061006c919061022a565b610124565b005b60008054906101000a900473ffffffffffffffffffffffffffffffffffffffff1673ffffffffffffffffffffffffffffffffffffffff1663a9059cbb33836040518363ffffffff1660e01b81526004016100ce9291906102a8565b602060405180830381600087803b1580156100e857600080fd5b505af11580156100fc573d6000803e3d6000fd5b505050506040513d601f19601f820116820180604052508101906101209190610201565b5050565b60008054906101000a900473ffffffffffffffffffffffffffffffffffffffff1673ffffffffffffffffffffffffffffffffffffffff166323b872dd3330846040518463ffffffff1660e01b815260040161018193929190610271565b602060405180830381600087803b15801561019b57600080fd5b505af11580156101af573d6000803e3d6000fd5b505050506040513d601f19601f820116820180604052508101906101d39190610201565b5050565b6000815190506101e681610319565b92915050565b6000813590506101fb81610330565b92915050565b60006020828403121561021357600080fd5b6000610221848285016101d7565b91505092915050565b60006020828403121561023c57600080fd5b600061024a848285016101ec565b91505092915050565b61025c816102d1565b82525050565b61026b8161030f565b82525050565b60006060820190506102866000830186610253565b6102936020830185610253565b6102a06040830184610262565b949350505050565b60006040820190506102bd6000830185610253565b6102ca6020830184610262565b9392505050565b60006102dc826102ef565b9050919050565b60008115159050919050565b600073ffffffffffffffffffffffffffffffffffffffff82169050919050565b6000819050919050565b610322816102e3565b811461032d57600080fd5b50565b6103398161030f565b811461034457600080fd5b5056fea26469706673582212200fd507b4bdb2b267ca33b983e29cc7e5940320201c2de6cfbc7b75e3094266bb64736f6c63430008040033",
  "linkReferences": {},
  "deployedLinkReferences": {}
}